:10086400758901758CF8758A80D28C308DFDC28CA7
:03087400C28D2210
:10087700758901758CF9758A55D28C308DFDC28CBE
:03088700C28D22FD
:10088A00758901758CFAE4F58AD28C308DFDC28C9B
:03089A00C28D22EA
:10089D00758901758CFA758AABD28C308DFDC28C41
:0308AD00C28D22D7
:1008B000758901758CFBE4F58AD28C308DFDC28C74
:0308C000C28D22C4
:1008C300758901758CFB758A80D28C308DFDC28C45
:0308D300C28D22B1
:1008D600758901758CFCE4F58AD28C308DFDC28C4D
:0308E600C28D229E
:1008E900758901758CFC758A40D28C308DFDC28C5E
:0308F900C28D228B
:10080000E4F5A0E590B4FE07B2A012086480F4E518
:1008100090B4FD07B2A012087780E8E590B4FB071A
:10082000B2A012088A80DCE590B4F707B2A01208E3
:100830009D80D0E590B4EF07B2A01208B080C4E567
:1008400090B4DF07B2A01208C380B8E590B4BF0728
:10085000B2A01208D680ACE590647F70A6B2A01258
:0408600008E9809F84
:030000000208FCF7
:0C08FC00787FE4F6D8FD75810702080043
:00000001FF
